:020000040800F2
:1000000050150020B9020008155B0008AD1D00085E
:10001000055500081B19000839650008000000009C
:10002000000000000000000000000000A15C0008CB
:100030001D19000800000000915B0008CD5E00085B
:10004000D3020008D3020008D3020008D30200083C
:10005000D3020008D3020008D3020008D30200082C
:10006000D3020008D3020008D3020008D30200081C
:10007000D3020008D3020008D3020008D30200080C
:10008000D3020008D3020008D3020008D3020008FC
:10009000D3020008D3020008D3020008D3020008EC
:1000A000D3020008D3020008D3020008D3020008DC
:1000B000D3020008D3020008215F0008D302000821
:1000C000D3020008D3020008D3020008D3020008BC
:1000D000D302000845620008A96200081163000805
:1000E000D3020008D3020008D3020008D30200089C
:1000F000D3020008D3020008D3020008D30200088C
:10010000D3020008D3020008D3020008D30200087B
:10011000D3020008D30200085D5F00084D600008AC
:10012000D3020008D3020008D3020008D30200085B
:1001300000F002F800F0B0F80AA090E8000C824449
:100140008344AAF10107DA4501D100F0A5F8AFF226
:10015000090EBAE80F0013F0010F18BFFB1A43F0A5
:1001600001031847D49D0000F49D00000A444FF09D
:10017000000C10F8013B13F0070408BF10F8014B06
:100180001D1108BF10F8015B641E05D010F8016B4B
:10019000641E01F8016BF9D113F0080F1EBF10F8AF
:1001A000014BAD1C0C1B09D16D1E58BF01F801CBD2
:1001B000FAD505E014F8016B01F8016B6D1EF9D555
:1001C0009142D6D37047000000230024002500266A
:1001D000103A28BF78C1FBD8520728BF30C148BFAA
:1001E0000B6070476E2900F0F782702900F085815E
:1001F000662908F0D681652908F0D381672908F0BF
:10020000D0816129AFF3008003681B0A28BF41F049
:100210008001692900F0F680642900F0F3807529D7
:1002200000F0F0806F2900F0FD85782900F0518101
:10023000E92900F09785E42900F09485F52900F07C
:100240009185EF2900F0FA85F82900F050810368C4
:10025000DB0928BF41F08001632900F0068573297E
:1002600000F00B85E32900F08786F32900F08C86E7
:10027000002070471FB500F0EBFD040000200021B6
:1002800007F05EFD401C60600020002107F042FD89
:10029000E0601FBD10B510BD00F010FF1146FFF764
:1002A000E9FF06F06BFA00F037FF03B4FFF7F2FF47
:1002B00003BC06F05DF90000094880470948004783
:1002C000FEE7FEE7FEE7FEE7FEE7FEE7FEE7FEE706
:1002D000FEE7FEE704480549054A064B7047000063
:1002E000D15E000831010008500F00205015002099
:1002F0005011002050110020704700001CB50C4622
:10030000064B7B4469460090204600F08CFC044676
:100310000020694600F09AFC20461CBD47090000F9
:100320000FB4044910B503AA029800F0ABFC10BC4E
:100330005DF814FB380000200FB41CB5084B06AA6A
:100340007B4469460090059800F06DFC044600204F
:10035000694600F07BFC20461CBC5DF814FB0000E5
:100360000909000070B5044685690068C10601D519
:10037000302600E02026C00707D070BDD4E9012157
:1003800030469047206A401C20626D1EF6D570BD35
:1003900070B5044685690078C00707D170BDD4E9FF
:1003A000012120209047206A401C20626D1EF6D556
:1003B00070BD70B50C460546012A05D02878800628
:1003C00000D5EA69002302E0012305E05B1C9342AB
:1003D00002D2E05C0028F9D1A869E618C01AA86129
:1003E000286A184428622846FFF7BCFF04E0D5E9D4
:1003F000012114F8010B9047B442F8D32846FFF7C7
:10040000C7FF70BD2DE9F04106460024106875292C
:10041000314616A510D000F074F9002802DA4042E7
:1004200013A507E031688A0701D512A502E0490744
:1004300004D511A5012401E000F06CF900210A2285
:1004400006F1240709E0B0FBF2FCB0FBF2F302FB7B
:100450001C00303078541846491C0028F3D123463C
:100460002A463046BDE8F04100F05DB900000000CA
:100470002D0000002B00000020000000F0B40D460D
:100480000188090502D5214C7C4402E01F4C7C44C4
:100490000E34002100F1240608E002F00F071209D3
:1004A000E75D42EA03721B097754491C52EA0307CD
:1004B000F3D102780023120704D5702D06D009B1BC
:1004C000022311342246F0BC00F02DB90123103470
:1004D000F8E770B504460D462146106800F01AF999
:1004E000024629462046BDE870400023C6E7D21DDB
:1004F00022F00703D3E90023C0E70368126843F042
:10050000200303600823C3610023B7E700990000BC
:100510002DE9F05F894604464FF0000ADFF874B118
:10052000FB44C0F820A02046E1688847002874D02A
:10053000252806D0D4E901219047206A401C20627A
:10054000F1E700265F462046E168884720280546F7
:1005500007DB312D05D2781910F8200C08B10643BD
:10056000F1E7B00701D526F00406C4F81CA0002767
:10057000C4F818A02A2D09D0284605F0F2FF38B398
:1005800004EB8708303DC8F8185019E059F8041BEF
:10059000204604EB87029161E1688847012F0546F8
:1005A00018D1E069002820DA26F020061DE0D8F8EE
:1005B000180000EB800005EB40003038C8F8180048
:1005C0002046E1688847054605F0CBFF0028EED1BC
:1005D000012F0AD02E2D08D12046E16888477F1CC4
:1005E0000546022F46F02006C4DBA069002803DA86
:1005F000404246F00106A061F00701D026F0100647
:100600006C2D0BD0682D09D04C2D39D06A2D35D0EA
:10061000742D35D07A2D33D016E038E0E1682F46BE
:1006200020468847B842054609D16C2F26D04FF4A2
:100630008060E168064320468847054604E06C2F49
:100640001AD04FF4807006430DB3A5F1410019286C
:1006500002D8203546F400664A46294620462660E0
:100660004E46FFF7BFFD80B101280BD0F61D26F0E6
:10067000070000F1080956E74020E4E78020D8E7AA
:100680000020D6E706F104094DE7284652E7206A24
:10069000BDE8F09F9098000030B505460B462A460D
:1006A00013F8014B12F8010B08B1A042F8D01CB1AD
:1006B000002802D06D1CF1E7284630BD10B5431C60
:1006C00002E010F8011B71B18107FAD14FF001323D
:1006D00002C88C1A8C4314EAC211F9D0C01A0A0657
:1006E00003D0C01E10BDC01A10BD0A0401D0801E68
:1006F00010BD0902FCD0401E10BD70477047704706
:10070000704709684A0501D540B27047C905FCD554
:1007100000B2704709684A0501D5C0B27047C905E3
:10072000FCD580B270472DE9F0470D4699469246B8
:10073000044600F124080168880604D5E06921F028
:100740001001216000E00120A84201DD471B00E00C
:100750000027A1697A1902EB0900081AA061207824
:10076000C00602D42046FFF7FDFD002608E0D4E9CC
:1007700001211AF806009047206A401C761C20626E
:100780004E45F4DB2078C0060AD52046FFF7EAFD87
:1007900006E0D4E9012130209047206A401C206205
:1007A000381EA7F10107F4DC07E0D4E9012118F8AD
:1007B00005009047206A401C2062281EA5F1010513
:1007C000F3DC2046FFF7E4FD2078000602D5022086
:1007D000BDE8F0870120FBE711680268006A530555
:1007E00001D508700AE0D30501D5088006E013069C
:1007F00003D5C217C1E9000200E00860012070477C
:1008000070472DE9FF4F0C461E464FF0FF378BB067
:10081000D2E90001DDF860800A908A46C1F30A55EA
:1008200005B93D46002108464FF00000BAF1000F1F
:1008300000F4400005DA00EB80004FF4400101EACB
:1008400050004FEA9059B9F1010F00DDB9460A98FE
:1008500050EA4A000ED044F61050A5F2FF35454349
:100860002F14B8F1000F1ED07542291E1EDDC9F1EC
:1008700000021CE0B8F1010F4FF0000001D0302160
:1008800003E0F24305E02154401CB042FBDB30465C
:100890000022002121540B99C1F80880C1E90020F1
:1008A0000FB0BDE8F08FBD1B6D1CDEE74A4600DAD5
:1008B000694206A800F06CFB06AB93E8070003ABA7
:1008C00083E8070050460A9900F06CFC8DE80700A9
:1008D000A0F500501F3800900398002D09DD42F26A
:1008E0001F014A46084403A90390684600F0CBFE66
:1008F00008E0A0F500504A461F3803A90390684657
:1009000000F0D5FE8DE807000004000C03D04FF086
:10091000FF30410800E01046B8F1000F03D000227C
:10092000009215461EE0751E05D400F095FA30328F
:1009300062556D1EF9D5B3460122084302D000224C
:100940007F1C04E02078302801D100227F1E002A7D
:10095000099786D01DE0112D07DA00F07DFA3032BC
:1009600062556D1C50EA0102F5D1084302D000988F
:10097000C8B10EE00021681E05E0235C625C635490
:100980002254401E491C8142F7DBAB46A81B401E87
:100990000990002004F80B000B98099AC0F8088011
:1009A000C0E9002B7CE711264FF0000859E72DE93C
:1009B000F04F88460446D21D22F0070191B0D1E9DC
:1009C0000001CDE90A0105F0B8FD02460B98C00F01
:1009D00001D02D2007E02068810701D52B2002E0FF
:1009E000202101EAC000032A099001D0072A05DB73
:1009F00003464146204600F075FA0BE12078800658
:100A000001D5E06900E00620B8F1650F814606D007
:100A1000B8F1660F18D0B8F1670F70D131E000203F
:100A2000B9F1110F009001DB112301E009F101037D
:100A30000AAA01A90CA8FFF7E4FEDDE90C70002664
:100A400009F10105834647E001204B4600904FF035
:100A500000470AAA01A90CA8FFF7D3FEDDE90DB0F3
:100A60000C995D46002610B909F101000D18B9EB8B
:100A7000050003D4C0F1FF3609F10105A5EB09001B
:100A80002BE0B9F1010F01DA4FF001090020B9F1B3
:100A9000110F0090484601DD112300E003460AAA29
:100AA00001A90CA8FFF7ADFEDDE90C704D4600264C
:100AB0008346207800070AD4AB4500DA5D4601A8DA
:100AC000012D04DD411911F8011C302907D04F45D3
:100AD00002DA17F1040F04DA012082460FE06D1EDE
:100AE000EEE7002F02DCED1B3E4403E0781CA84239
:100AF00000DD7D1CB81B00F1010A4FF00047207893
:100B0000000703D4AA4501DB4FF0FF3A0021B7F1FB
:100B1000004F0DF143088DF8431024D002202B2301
:100B2000002F01DA7F422D230A21021EA0F10100CD
:100B300000DC5FB197FBF1FC97FBF1F201FB1C7C41
:100B400017460CF1300C08F801CDEEE7A8F10100D2
:100B500003702188090501D5452100E06521A0F138
:100B6000010800F8011C09980FA9A1EB0807FF1D57
:100B700000B10120411901EBEA70A1693844081A5B
:100B8000401EA0612078C00602D42046FFF7EAFB91
:100B9000099828B1D4E901219047206A401C2062BD
:100BA0002078C00622D52046FFF7DCFB1EE0002E91
:100BB00004DBB34502DD01A8805D00E03020D4E90C
:100BC00001219047206A401C2062761CAAF1010096
:100BD0005FEA000A0AD100F03BF9C0680168405C96
:100BE000D4E901219047206A401C2062281EA5F10B
:100BF0000105DCDC07E0D4E9012118F8010B90477E
:100C0000206A401C2062381EA7F10107F3DC204651
:100C1000FFF7BEFB032011B043E6000001694A1C48
:100C200002610878704700B58FB0CDE9013100212D
:100C3000059105497944CDE9031011466846FFF74F
:100C400067FC0FB000BD0000E5FFFFFF0A6802F877
:100C5000010B0A60704710B5436913B1AFF3008010
:100C600001E0FFF7A6FB012010BD127800F124017E
:100C70000A7000224A700122EDE711684FF0FF323E
:100C8000E9E70000074B70B50D467B44FFF7CBFF4B
:100C90000446284600F0EAF910B14FF0FF3070BD6D
:100CA000204670BDD75A00002DE9FF5F15468A46E1
:100CB0000446DFF8AC80F8440027D8E900103E462F
:100CC000CDE9001010E03AF816106A4602A800F0CC
:100CD000D1F9411C07D02178890603D5E26939187A
:100CE00091420DD80744761C2078800602D5E06931
:100CF000B84205DDAE42E6DB3AF816000028E2D144
:100D0000A069C01BA0612046FFF72CFBD8E90010AA
:100D1000CDE90010002017E03AF818106A4602A842
:100D200000F0A8F9B0F1FF3F81460BD000250DF18E
:100D3000080B05E0D4E901211BF8050090476D1C64
:100D40004D45F7D308F10100B0428046E4DB206A4C
:100D5000384420622046FFF71BFBBDE8FF9F0000E0
:100D60000E9100002DE9F0418046D21D22F00702CD
:100D70000025D2E90002F52915A614D0011E72F152
:100D8000000106DA0023D0EB030063EB020211A698
:100D900008E0D8F800108B0701D50FA602E049073C
:100DA00001D50EA601251146002408F1240704E010
:100DB00000F052F830323A55641C50EA0102F7D183
:100DC0002B46324621464046BDE8F041FFF7ABBC1A
:100DD000000000002D0000002B000000200000009B
:100DE00030B4002100F1240408E002F00705D20825
:100DF000303542EA4372DB086554491C52EA030568
:100E0000F3D10468002310A2250708D504F02004BC
:100E10000C4304D0C46901230CA2641EC46130BC1D
:100E2000FFF781BC10B5044621461068FFF772FC3D
:100E300002462046BDE810400023D1E7D21D22F033
:100E40000701D1E90023CBE70000000030000000DB
:100E500000487047100F002030B5B0F10A024FEA89
:100E6000900E71F100034EEA817EB0EB0E0061EB53
:100E700091014FEA101E4EEA017E10EB0E0041EB8D
:100E800011114FEA102E4EEA016E10EB0E0041EBED
:100E900011214FEA104E4EEA014E10EB0E0041EBCD
:100EA0001141401841F100014FEAD00040EA417081
:100EB0004FEAD10110EB80054FEA810444EA9074B7
:100EC00044EB01046D1944EB0404521BA3414FF0A1
:100ED000000348BF0A3200D530BD401C41F100017B
:100EE00030BD00002DE9F0411F460446032601688D
:100EF000072A01F4006004DB08B116A505E016A579
:100F000003E008B115A500E015A521F01000206050
:100F1000A069C01EA0610FB1401EA0612046FFF76E
:100F200021FA4FB1D4E9012138469047206A401C8C
:100F30002062C01C206206E0206AFAE7D4E90121A1
:100F400015F8010B9047761EF8D22046FFF720FADD
:100F5000BDE8F0814E414E006E616E00494E460084
:100F6000696E660010B5436913B1AFF3008001E00C
:100F7000FFF79AFE012010BD128800F1240182843F
:100F80000022C2840122EDE711684FF0FF32E9E749
:100F90002DE9F047814616468AB0334878440DC89B
:100FA0008DE80D0030487844801C03AC0DC884E8FF
:100FB0000D0041F69B300844372190FBF1F290FB85
:100FC000F1F5A5F1800501FB12041B3C02D564423A
:100FD000012000E00020DFF890A080460027FA44BE
:100FE000AAF1BE0A0DE0E00709D03246684607EBD9
:100FF00047010AEB810100F05AFB8DE807006410FD
:101000007F1C002CEFD1184F7F44AC3F18E0E8075D
:1010100014D007EB04100DF1180A90E80E008AE8CE
:101020000E00C068F04201D198190890324606A916
:1010300003A800F03CFB03AB83E807006D10641CC1
:10104000002DE4D132466946B8F1000F03A802D062
:1010500000F019FB01E000F02AFBC9E90001C9F822
:1010600008200AB0BDE8F087AC8E0000007B00F0DD
:101070008000704770B516460C46054600F044F8EF
:10108000036893F80101012806D0FF2C0FD8185DE2
:1010900068B101202C7070BDD3F80701324621469B
:1010A00003F2071303442846BDE8704018474FF089
:1010B000FF3070BD00487047F00E00207546FFF706
:1010C000F9FFAE4605006946534620F00700854605
:1010D00018B020B5FFF7FEF8BDE820404FF000063D
:1010E0004FF000074FF000084FF0000B21F0070110
:1010F000AC46ACE8C009ACE8C009ACE8C009ACE853
:10110000C0098D467047000010B5FFF7A1FE001D15
:1011100010BD00BF2D6C00000446AFF300802046D8
:10112000FFF7C3F84FF0013C50F8042B51F8043B93
:101130009A4221D1A2EB0C03934313EACC1317D1AB
:1011400050F8042B51F8043B9A4215D1A2EB0C0342
:10115000934313EACC130BD150F8042B51F8043B02
:101160009A4209D1A2EB0C03934313EACC13DBD0D0
:101170004FF00000704700BFD01A01BAB1FA81F1F8
:1011800001F0180122FA01F0CB40C1F12001DBB2DD
:10119000C0B2C01A2CFA01F3D11A914311EAC3115B
:1011A000E6D170475FEA400C08BF91F0000F4FEAAC
:1011B0008C234FEAC12243EA51514FEA1C5018BF19
:1011C00000F5F0404FEA300018BF41F000415FEAFF
:1011D0006C5C00F02980BCF1FF3F08BF40F080400C
:1011E0007047130C06BF12044FF0100C4FF0000CA8
:1011F000130E04BF12020CF1080C130F04BF1201EE
:101200000CF1040C930F04BF92000CF1020CD30FED
:1012100004BF52000CF1010C11464FF00002A0F186
:101220001F00A0EB0C00704711F0004F08BF704783
:1012300031F000413FF4D5AF0B0C06BF09044FF06D
:10124000100C4FF0000C0B0E04BF09020CF1080C3F
:101250000B0F04BF09010CF1040C8B0F04BF8900B4
:101260000CF1020CCB0F04BF49000CF1010CCCF1C6
:101270002003A0EB0C0022FA03F302FA0CF241EA7D
:10128000030100F10100704720F07F4C80EA030069
:1012900023F07F47ACEB070303F57C5300F00040DD
:1012A00003F1FF032DE980494FEA154B09B44FEADA
:1012B000144325EA0B4E24EA03480FF2042606EBFA
:1012C000132749083E785FEA320203FB0667C7F539
:1012D000000707FB06F64FEA54374FEAD64606F1F9
:1012E000020607FB066CCCF1005C4FEA1C472CEAB7
:1012F000074C07FB06F40CFB06F504EB15464FEA1A
:10130000961634BF00204FF000404FEAD13706FB5D
:1013100007FC4FEA1C4C0CFB0BF7D21B03FB0CF732
:1013200061EB07010CFB0EF7B0EB074072EB1742C5
:101330000CFB08F734BFA2EB0742B2EB074261EBAC
:1013400017414FEA0C444FEA910706FB07FC4FEAAE
:101350001C4C0CFB0BF7B0EBC74072EB573203FB96
:101360000CF734BFA2EBC742B2EBC74261EB573177
:101370000CFB0EF7B0EBC70072EB57720CFB08F7D3
:1013800034BFA2EBC702B2EBC70261EB5771039FF8
:101390004FEA816141EA921104EBCC044FEAD13764
:1013A0004FEA826206FB07FC42EA90124FEA806035
:1013B0004FEA1C4C0CFB0BF7D21B03FB0CF761EB49
:1013C00007010CFB0EF7B0EB074072EB17420CFB6A
:1013D00008F734BFA2EB0742B2EB074261EB1741BB
:1013E0004FEA8C554FEA910704EB9C2406FB07FC5F
:1013F0004FEA1C4C0CFB0BF7B0EBC74072EB5732BB
:1014000003FB0CF734BFA2EBC742B2EBC74261EB60
:1014100057310CFB0EF7B0EBC70072EB57720CFBA9
:1014200008F734BFA2EBC702B2EBC70261EB5771FA
:1014300015EB4C254FEA816141EA92114FEA826235
:101440004FEAD13742EA901206FB07FC44F1000450
:101450004FEA80604FEA1C4C0CFB0BF7D21B03FBDE
:101460000CF761EB07010CFB0EF7B0EB074072EBDA
:1014700017420CFB08F734BFA2EB0742B2EB07425E
:1014800061EB174115EB1C154FEA813141EA92419E
:101490004FEA823242EA90424FEA80304FEA0C76BD
:1014A00044F1000448EA03434EEA0B484FF0000EB3
:1014B000B2EB080C71EB030724BF624639464EEBD2
:1014C0000E0E4FF0000B0018524149414BEB0B0B35
:1014D000B2EB080C71EB03077BF1000B24BF6246F3
:1014E00039464EEB0E0E4FF0000B001852414941A9
:1014F0004BEB0B0BB2EB080C71EB03077BF1000B12
:1015000024BF624639464EEB0E0E51EA020718BF61
:1015100046F0010616EB0E7655F1000254F100017B
:1015200003D5BDE88901BDE80088BDE88901BDE8B3
:101530000048B619524141EB0101A3F10103704784
:1015400080807F7E7D7C7B7A797877767675747300
:10155000727171706F6E6E6D6C6C6B6A6A696868BF
:10156000676666656464636362616160605F5F5E55
:101570005E5D5D5C5C5B5B5A5A59595858575756CB
:101580005655555554545353525252515150505030
:101590004F4F4F4E4E4D4D4D4C4C4C4B4B4B4A4A82
:1015A0004A494949484848474747474646464545C6
:1015B00045444444444343434342424242414141FF
:1015C000002B26D4770021D01CB54FEA370703B48F
:1015D0004FF010004FF010014FF000000FBCBDE8BD
:1015E00010400BF1010BBBF1010F08BF5FEA1707B9
:1015F00022BF12F1010211F101014FF0004143F14C
:10160000000300F0004043EA00007047F9D3570898
:10161000DAE746EA064613F1400F4FEA16461FDDA9
:1016200013F1200FDFBF16430A46002120335B422F
:10163000C8D0C3F1200746EA064602FA07F74FEA88
:10164000164646EA0706C3F1200722FA03F201FA1A
:1016500007F721FA03F14FF0000342EA0702B1E76E
:1016600046EA020646EA06464FEA164646EA0106FA
:10167000BCBF46EA0646360C4FF000034FF00002AE
:101680004FF000019EE72DE9C048934630B491E841
:10169000380007C831EA400C48BF34EA430C03D590
:1016A000FFF7F2FDFFF78CFFF0BCBDE800882DE9E5
:1016B000C048934630B491E8380007C810F0804F16
:1016C00008BF13F0804F03D100F005F8FFF778FF53
:1016D000F0BCBDE8008820F07F4780EA030023F0DB
:1016E0007F4C07EB0C03A3F57C5300F00040A3F103
:1016F000FE0392F0000F00F0B38095F0000F00F0B1
:1017000077802DE901494FEA11404FEA144621EA5A
:10171000004800FB06FC24EA064708FB06F607FB28
:1017200008F800FB07F718EB06484CEB164C4FEA9D
:10173000124B18EB07484FEA15464CEB174022EACC
:101740000B4E0BFB06FC25EA06470EFB06F607FBD5
:101750000EFE0BFB07F71EEB064E4CEB164C4FF044
:1017600000061EEB074E4CEB174B18EB0B0840F135
:10177000000018EB0E0B58EB000840F100008F1A28
:101780004FF000013CBFC943661B14BFB5EB040C0E
:1017900000213CBFC943F61B4FEA17444EEA8E0EA8
:1017A00027EA04454FEA1C4704FB07622CEA074C72
:1017B00005FB07F70CFB05F604FB0CFC16EB0746D4
:1017C00042EB174216EB0C4642EB1C421BEB0606A3
:1017D00058EB0202414146EA9E0601D5BDE8018967
:1017E000B619524141EB0101A3F10103BDE80189A2
:1017F0004FEA14454FEA114724EA054621EA074C0F
:1018000005FB07F406FB07F70CFB06F105FB0CFCD8
:1018100011EB074144EB17444FEA124711EB0C411F
:1018200044EB1C4422EA074C05FB07F206FB07F7D2
:101830000CFB06F605FB0CFC16EB074642EB1742C9
:1018400016EB0C4642EB1C456A1854F1000148BFE8
:101850007047B619524141EB0101A3F101037047F2
:1018600095F0000F37D04FEA11424FEA144721EAB2
:10187000024624EA074C02FB07F106FB07F70CFBC4
:1018800006F402FB0CFC14EB074441EB17414FEA52
:10189000154714EB0C4441EB1C4125EA074C02FBB5
:1018A00007F506FB07F70CFB06F602FB0CFC16EB34
:1018B000074645EB174516EB0C4645EB1C42121943
:1018C00051F1000148BF7047B619524141EB010187
:1018D000A3F1010370474FEA14454FEA114724EA88
:1018E000054621EA074C05FB07F106FB07F70CFB51
:1018F00006F24FF0000605FB0CFC12EB074241EB31
:10190000174112EB0C4251EB1C4148BF7047921833
:1019100041EB0101A3F101037047FEE770470000AE
:101920008000A0F1C0400029016802D041F001010F
:1019300001E0024A1140016070470000FEFF0F0005
:1019400010B5D0E901121143D0E903231A43114322
:101950004269114382691143C2691143026A11430A
:10196000426A1143826A1143C26A1143026B1143F6
:1019700002689200A2F1C04211608168082907D173
:1019800001688900A1F1C0410A6842F040020A6082
:10199000416BD1E9002342EA03128B688C891B0258
:1019A00043EA04431A430B8A42EA03520B7D8969D6
:1019B00042EA03620A4301688900A1F1C0414A601A
:1019C000C16AB1F5804F08D000686FF070418000A7
:1019D000A0F1C040C0F8041110BD816BD1E9002313
:1019E00042EA03128B680C8A1B0243EA04531A432F
:1019F0000B7D896942EA036200680A438000A0F116
:101A0000C040C0F8042110BDF0B5CC78002204F02D
:101A10000F03E40601D58C7823430C784FF00F0CAC
:101A200014F0FF0F4FF0010E1BD005680E880EFA60
:101A300002F42640A64210D196000CFA06F725EAD9
:101A4000070703FA06F5CE783D43282E02D0482E2C
:101A500002D002E0446100E00461521C082AE5D390
:101A600005600A88FF2A1CD94468002202F1080692
:101A70000EFA06F50E882E40AE420ED196000CFAF4
:101A800006F7BC4303FA06F7CE783C43282E00D174
:101A90004561CE78482E00D10561521C082AE5D355
:101AA0004460F0BD0246002092680A4200D0012046
:101AB00070470161704770B50C46054603F04EFF54
:101AC0002146284603F020FD2146284603F0AAFDC2
:101AD0002146284603F0D6FD2146284603F022FE83
:101AE00021462846BDE8704003F012BF2DE9FC41B5
:101AF0006C496D4C1F200880D4F88600823406F0B3
:101B0000FBFB6A4F394606F0FDFA06F06DFA227AC1
:101B1000009202460B4666A104F12600FEF70CFC7B
:101B2000102504F12606CDE900562B46C82278215F
:101B30001E2003F083FC54F8010C06F0DDFB39464F
:101B400006F0E0FA06F050FAE278009202460B4600
:101B50005DA13046FEF7F0FBCDE900561023C82208
:101B60008C211E2003F06AFCD4F81E0006F0ACFBAA
:101B70005B4906F0C7FA06F037FA02460B4659A150
:101B80003046FEF7D9FBCDE900561023C822A0212C
:101B90001E2003F053FC608C06F0AEFB564906F0A5
:101BA000B1FA06F021FA02460B4654A13046FEF780
:101BB000C3FBCDE900561023C822B4211E2003F038
:101BC0003DFCE07D823C03280ED8514951F820208D
:101BD00050A13046FEF7B0FBCDE90056C8221023D5
:101BE00011461E2003F02AFC2F4894F88C204CA1AB
:101BF000A8306E34FEF7A0FBCDE900561023C822B2
:101C0000DC211E2003F01AFC14F86E0C6427B0FBD4
:101C1000F7F107FB1102244848A1A830FEF78CFB1E
:101C2000CDE900561023C822F0211E2003F006FC47
:101C300014F86D0CB0FBF7F107FB11021A4846A12E
:101C4000A830FEF779FBCDE900561023C8224FF4E7
:101C500082711E2003F0F2FBE07B00901248A37B10
:101C6000A28944A1A830FEF767FBCDE900561023F6
:101C7000C8224FF48C711E2003F0E0FBA07C009082
:101C80000948637C227C42A1A830FEF755FBCDE9D0
:101C900000561023C8224FF496711E2003F0CEFB8D
:101CA000BDE8FC8126000020E00300200050C3476F
:101CB0004C6F6E6769747564653A252E356620250C
:101CC00031632020200000004C61746974756465E4
:101CD0003A252E35662025316320202000000000A3
:101CE00000002041416C7469747564653A252E3199
:101CF000666D20202020200000007A445370656526
:101D0000643A252E33666B6D2F682020202020003A
:101D100000000020466978204D6F64653A25730005
:101D20004750532B42442056616C696420736174A0
:101D3000656C6C6974653A253032640047505320F5
:101D400056697369626C6520736174656C6C697443
:101D5000653A253032640000424420566973696256
:101D60006C6520736174656C6C6974653A253032FA
:101D70006400000055544320446174653A253034B2
:101D8000642F253032642F2530326420202000005B
:101D90005554432054696D653A253032643A2530F4
:101DA00032643A253032642020200000FEE7000033
:101DB00008B50121442003F011FF1C20ADF80000FC
:101DC00048208DF8030069460648FFF71DFE0120F4
:101DD000ADF8000028208DF8030069460248FFF79F
:101DE00013FE08BD00180140000801402DE9F04134
:101DF0002E4C2F4F2F4D012608B1267001E0207880
:101E0000A0B110212846FFF74DFEB0B108212846A9
:101E1000FFF748FE88B104212846FFF743FE60B172
:101E200001213846FFF73EFE012806D01021284642
:101E3000FFF738FE012824D035E00A2004F05EFCCC
:101E40000020207010212846FFF72CFE80B10821C9
:101E50002846FFF727FE70B104212846FFF722FE2F
:101E600058B101213846FFF71DFE012807D01AE0BE
:101E70000120BDE8F0810220FBE70320F9E7042000
:101E8000F7E708212846FFF70DFE01280BD10421B2
:101E90002846FFF707FE012805D101213846FFF744
:101EA00001FE00B926700020E3E7000024000020B6
:101EB00000080140001801402DE9F043174F064685
:101EC000002438887D884543B888A0F5D04104397E
:101ED00002D1B879012807D00021084603F0A4F9FF
:101EE00003F0D6FA0E4815E00020B8714FF02A0929
:101EF000A7F80A904FF02B08A7F80C80014603F0D2
:101F000093F90120B871A7F80A80A7F80C90E7E7C9
:101F10000680641CAC42FBD3BDE8F083BA04002009
:101F20000008006C2DE9F04F4A492A232B248988A8
:101F300045F2105A4FF4305B4FF4285E4FF4487569
:101F40004FF0F00C49F241394FF4A07745F21036CA
:101F50004FF4F07280B13F484FF00108494580F8D6
:101F600006800780A0F802C001D0B1423ED12C25E6
:101F700005814381848157E036484FF00008494588
:101F800080F80680A0F800C0478006D0A1F5D04CAC
:101F9000BCF1040C01D0B1420CD12C250581438148
:101FA000A1F5D0438481043B01D0B14244D10780E4
:101FB000428041E0514507D1A0F808B0A0F80AE0FE
:101FC0004FF42C5181810EE0A1F5C856633E06D036
:101FD0002221018120214181212181812CE02C219C
:101FE0000181448183810280458025E0A1F5D04CA8
:101FF000BCF1040C09D051450BD1A0F808B0A0F8F1
:102000000AE04FF42C53838121E02C250581448183
:1020100009E0A1F5C85CBCF1630C12D02223038156
:102020002123438120238381A1F5D043043B01D0A8
:10203000B14201D102804780BDE8F04F002003F09B
:102040001FB84FF02C0CA0F808C043818481058094
:102050004280E9E7BA0400202DE9F04FDFF80C8157
:10206000934642460B46B8F804500C0ADFF800A12C
:102070009189060A5289A5F513470AF10209413FE1
:1020800018D0A5F5A647103F14D0B7F500771CD09F
:102090004746A5F5C85CBE793F883F1A7F1EBCF154
:1020A000630C27D0A5F5D04CBCF1040C3AD0012E1E
:1020B0004AD04AE0AAF800204A46A9F80060C0B217
:1020C000A9F80000AAF800103AE0AAF80020A9F840
:1020D0000060521CAAF80020C0B2A9F80000AAF8BB
:1020E0000010A9F80040491CAAF80010D8B2A9F8BD
:1020F000000033E006B9B8B2AAF80020050A4A4643
:10210000A9F80050C7B2A9F80070A9F80050C0B2F1
:10211000A9F80000AAF80010A9F80040D8B2A9F860
:1021200000000DE0012E00D1B8B2AAF80020050A87
:102130004A46A9F80050C0B2A9F80000AAF8001059
:102140001480D8B2108009E0B8B20146104603F0FE
:10215000A9F9B8F80C00194603F0A4F9B8F808106A
:10216000AAF80010A9F800B0BDE8F08FBA0400206A
:10217000FE07006C2DE9F8431F4D1F468046AB88D3
:10218000089EA3F5D040043802D1A879012807D0D1
:10219000A2EB0800401C85B20C46DFF8609028E0F6
:1021A0002B880846991A0024AC713A462A24A3EBDE
:1021B00008036C812B27491E5B1EAF8189B29BB23D
:1021C0000096FFF7D7FF0120A8716F81AC81BDE8B1
:1021D000F8832146404603F027F803F059F9002020
:1021E000494602E00E80401C80B2A842FAD3641C2B
:1021F000A4B2BC42EDD9EAE7BA0400200008006CA2
:102200002DE9F04F01210E029FB0304603F0C2FCD1
:1022100001214FF4B47003F0E1FC0127ADF83C70EC
:102220004FF010088DF83F8003248DF83E400FA931
:10223000FE48FFF7E9FB4CF23370ADF83C0018257F
:102240008DF83F508DF83E400FA9F948FFF7DCFBB1
:102250004FF68070ADF83C008DF83F508DF83E4051
:102260000FA9F448FFF7D0FB41F20100ADF83C00A4
:102270008DF83F508DF83E400FA9EF48FFF7C4FBA3
:1022800000200F21CDE918011A901B901C901D9081
:102290001090CDE91104CDE9160714900621159090
:1022A000CDE90010CDE90208139004903101CDE989
:1022B00008010690059007908900CDE90A010C906D
:1022C00017A80D9010A80E906846FFF739FB012162
:1022D0000620FFF725FB322004F010FA002002F060
:1022E000A5FED64DD64C49F24139A88046F6040ADF
:1022F00045F2103B45F210574FF6FF78FF2804D304
:10230000404502D0B0F5134F70D1D320208002F0A9
:1023100083FEA88002F080FEA88002F07DFE08EA1D
:1023200000204146A88002F077FEAA881043A880CA
:1023300048455BD0BF20208002F06EFEA88002F0EE
:102340006BFEA88002F068FEA88002F065FE01EA3C
:102350000020A88002F060FEAA881043A8805045A3
:1023600044D0D420208002F057FEA88002F054FE12
:10237000A88002F051FE01EA0020A88002F04CFE85
:10238000AA881043A880584530D04FF45A40208086
:1023900002F042FEA8804FF45B40208002F03CFE39
:1023A00001EA0020A8804FF45C40208002F034FE57
:1023B000AA881043A880B0F5004F7DD0B84215D050
:1023C000A120208002F028FEA88002F025FE01EA6C
:1023D0000020A88002F020FEA9880843A0F5AE41A5
:1023E000A880613902D141F66310A880A98895A020
:1023F000FDF796FFA888924DAD1C48457ED1CF20B1
:10240000208000202880C120288030202880ED20D6
:1024100020806420288003202880122028808120AA
:102420002880E820208085202880102028807A209D
:102430002880CB202080392028802C202880002054
:1024400028803420288002202880F7202080202027
:102450002880EA202080002028802880C02020803A
:102460001B202880C120208001202880C5202080BA
:10247000302028802880C7202080B7202880362060
:102480002080482028803A20208055202880B120B4
:102490002080002028801A202880B62020800A2052
:1024A0002880A2202880F22020800020288026205A
:1024B00020800120288000E051E0E02020800F20D3
:1024C00028802A20288028202880082028800E2084
:1024D00028800820288054202880A9202880432094
:1024E00028800A2028800F2028800020288028802B
:1024F00028802880E1202080002000E031E0288032
:102500001520288017202880072028801120288067
:10251000062028802B202880562028803C202880D8
:1025200005202880102028800F2028803F20288028
:1025300028800F2028802B202080002028802880C1
:10254000012028803F2028802A2020800020288009
:1025500028802880EF2028801120208084E0AF8010
:1025600044E7504576D111202080142004F0C6F8AD
:10257000D020208007202880422028801D2028800D
:10258000D1202080002028801A202880092028803F
:10259000D22020800120288022202880C020208076
:1025A000102028803B2028800020288002202880BE
:1025B00011202880C520208003202880C82020806A
:1025C00000202880252028802120288005202880A0
:1025D000002028800A202880652028802520288047
:1025E00077202880502028800F20288000202880F5
:1025F000F820208001202880FE20208000202880D4
:10260000022028802020208036202080082028805A
:102610003A202080552028802B20208000202880F0
:102620002880012028803F20288014E0000C0140F1
:10263000001401400018014000200140BA040020AD
:10264000FE07006C204C43442049443A25780D0A8B
:10265000000000000EE02A20208000202880288032
:1026600001202880DF202880782004F047F82920E6
:1026700001F02DBC58457DD1ED202080012028801F
:10268000FE202880EE202080DE2028802120288047
:10269000F120208001202880DF2020801020288049
:1026A000C42020808F202880C62020800020288001
:1026B000E220288028802880BF202080AA2028802F
:1026C000B02020800D202880002028800D20288028
:1026D00000202880112028800020288019202880B0
:1026E0000020288021202880002028802D2028807C
:1026F000002028803D202880002028805D20288020
:10270000002028805D20288000202880B1202080A3
:1027100080202880002028808B202880002028808E
:102720009620288000202880B22020800020288049
:102730002880022028800020288003202880002074
:102740002880B320208000202880288028802880AE
:102750002880288028802880288028802880288039
:102760002880288028802880288028802880288029
:10277000288000E0FEE3288028802880B420208084
:102780008B20288000202880962028800020288008
:10279000A120288000202880B520208002202880C9
:1027A0000020288003202880002028800420288002
:1027B00000202880B6202080002028802880B72094
:1027C00020800020288028803F202880002028802A
:1027D0005E20288000202880642028800020288017
:1027E0008C20288000202880AC2028800020288091
:1027F000DC2028800020288070202880002028806D
:102800009020288000202880EB202880002028802D
:10281000DC20288000202880B8202080002028800C
:102820002880288028802880288028802880BA2036
:102830002080242028800020288028802880C12013
:1028400020802020288000202880542028800020FC
:102850002880FF20288000202880C22020800A2095
:102860002880002028800420288000202880C32081
:1028700020803C202880002028803A2028800020CA
:1028800028803920288000202880372028800020B8
:1028900028803C20288000202880362028800020A6
:1028A000288032202880002028802F2028800020A7
:1028B00028802C20288000202880292028800020A3
:1028C000288026202880002028802420288000209E
:1028D0002880242028800020288023202880002091
:1028E00028803C2028800020288036202880002056
:1028F000288032202880002028802F202880002057
:1029000028802C2028800020288029202880002052
:10291000288026202880002028802420288000204D
:102920002880242028800020288023202880002040
:102930002880C42020806220288000202880052054
:102940002880002028808420288000202880F020F3
:102950002880002028801820288000202880A4209B
:1029600028800020288018202880002028805020DF
:102970002880002028800C20288000202880172014
:102980002880002028809520288000202880F3209F
:10299000288000202880E620288000202880C5206C
:1029A0002080322028800020288044202880002099
:1029B000288065202880002028807620288000201C
:1029C00028808820288000202880C6202080202081
:1029D00028800020288017202880002028800120BF
:1029E000288000202880C720208000202880288080
:1029F00028802880C82020800020288028802880E7
:102A00002880C920208000202880288028802880D5
:102A10002880288028802880288028802880288076
:102A20002880288028802880E02020801620288088
:102A3000002028801C202880002028802120288039
:102A400000202880362028800020288046202880EA
:102A500000202880522028800020288064202880A0
:102A6000002028807A202880002028808B20288041
:102A7000002028809920288000202880A8202880F5
:102A800000202880B920288000202880C4202880A9
:102A900000202880CA20288000202880D22028807A
:102AA00000202880D920288000202880E02028804D
:102AB00000202880F320288000202880E12020802A
:102AC00016202880002028801C20288000202880B4
:102AD000222028800020288036202880002028807E
:102AE000452028800020288052202880002028802F
:102AF00064202880002028807A20288000202880D8
:102B00008B20288000202880992028800020288081
:102B1000A820288000202880B92028800020288034
:102B2000C420288000202880CA20288000202880F7
:102B3000D220288000202880D820288000202880CB
:102B4000E020288000202880F32028800020288092
:102B5000E220208005202880002028800B2028806B
:102B6000002028801B2028800020288034202880F6
:102B70000020288044202880002028804F202880A2
:102B8000002028806120288000202880792028804B
:102B900000202880882028800020288097202880F6
:102BA00000202880A620288000202880B7202880A8
:102BB00000202880C220288000202880C72028806C
:102BC00000202880D120288000202880D62028803E
:102BD00000202880DD20288000202880F320288005
:102BE00000202880E32020800520288000202880E5
:102BF0000A202880002028801C202880002028808F
:102C0000332028800020288044202880002028802D
:102C100050202880002028806220288000202880E2
:102C20007820288000202880882028800020288084
:102C30009720288000202880A62028800020288037
:102C4000B720288000202880C220288000202880EB
:102C5000C720288000202880D120288000202880BC
:102C6000D520288000202880DD2028800020288092
:102C7000F320288000202880E42020800120288064
:102C80000020288001202880002028800220288021
:102C9000002028802A202880002028803C202880AE
:102CA000002028804B202880002028805D2028805C
:102CB00000202880742028800020288084202880FC
:102CC000002028809320288000202880A2202880AF
:102CD00000202880B320288000202880BE20288063
:102CE00000202880C420288000202880CD20288033
:102CF00000202880D320288000202880DD20288004
:102D000000202880F320288000202880E5202080D3
:102D10000020288028802880288002202880002009
:102D2000288029202880002028803C20288000201E
:102D300028804B202880002028805D2028800020CB
:102D4000288074202880002028808420288000206B
:102D500028809320288000202880A220288000201E
:102D60002880B320288000202880BE2028800020D2
:102D70002880C420288000202880CD2028800020A2
:102D80002880D320288000202880DC202880002074
:102D90002880F320288000202880E6202080112031
:102DA0002880002028803420288000202880562079
:102DB0002880002028807620288000202880772006
:102DC00028800020288066202880002028808820F5
:102DD0002880002028809920288000202880BB207F
:102DE00028800020288099202880002028806620C4
:102DF0002880002028805520288000202880552009
:102E0000288000202880452028800020288043201A
:102E10002880002028804420288000202880E72067
:102E20002080322028800020288055202880002003
:102E30002880762028800020288066202880002096
:102E40002880672028800020288067202880002094
:102E50002880872028800020288099202880002032
:102E60002880BB20288000202880992028800020EE
:102E70002880772028800020288044202880002077
:102E800028805620288000202880232028800020A9
:102E9000288033202880002028804520288000209A
:102EA0002880E82020800020288028809920288001
:102EB00000202880872028800020288088202880E3
:102EC0000020288077202880002028806620288005
:102ED000002028808820288000202880AA202880A0
:102EE00000202880BB20288000202880992028806E
:102EF00000202880662028800020288055202880F7
:102F00000020288055202880002028804420288008
:102F100000202880442028800020288055202880F8
:102F200000202880E9202080AA20288000202880F6
:102F3000288028802080AA202880CF202080002080
:102F40002880288028802880288028802880288041
:102F50002880288028802880288028802880288031
:102F60002880F02020800020288050202880002009
:102F7000288000E02CE028802880F320208000209A
:102F80002880F920208006202880102028802920F1
:102F90002880002028803A20208055202880112079
:102FA0002080642003F0AAFB292020803520208087
:102FB0000020288051202080FF202880532020805E
:102FC0002C20288055202080822028802C20FCE383
:102FD000B8427DD14FF470435521184602F062FA91
:102FE0004FF20105AA21284602F05CFA6E1C52211C
:102FF000304602F057FAAF1C0821384602F052FA68
:103000004FF204090121484602F04CFA0D214FF419
:10301000304002F047FA0D214BF2010002F042FA73
:103020000D214BF2020002F03DFA4FF4364A3421F2
:10303000504602F037FA34214BF2016002F032FAC6
:1030400034214BF2026002F02DFA4FF4314B0D2186
:10305000584602F027FA0D214BF2011002F022FA35
:103060000D214BF2021002F01DFA34214FF43740CB
:1030700002F018FA34214BF2017002F013FA3421F5
:103080004BF2027002F00EFA00214FF4324002F0CF
:1030900009FA00214BF2012002F004FA00214BF260
:1030A000022002F0FFF924214FF4384002F0FAF92F
:1030B00024214BF6010002F0F5F924214BF6020021
:1030C00002F0F0F901214FF43F4002F0EBF900E08B
:1030D000FEE30F214FF4334002F0E4F90F214BF2ED
:1030E000013002F0DFF90F214BF2023002F0DAF981
:1030F00034214FF4394002F0D5F934214BF6011058
:1031000002F0D0F934214BF6021002F0CBF908217D
:103110004FF4354002F0C6F908214BF2015002F09D
:10312000C1F908214BF2025002F0BCF903214FF41F
:10313000424002F0B7F924214FF43A4002F0B2F9CC
:1031400024214BF6012002F0ADF924214BF6022098
:1031500002F0A8F900214FF43C4002F0A3F97821D5
:103160004BF6014002F09EF900214BF6024002F0BE
:1031700099F900214FF43D4002F094F978214BF683
:10318000015002F08FF900214BF6025002F08AF94B
:1031900000214FF43E4002F085F964214BF60160B6
:1031A00002F080F900214FF4514002F07BF9332105
:1031B0004DF2011002F076F900214DF2021002F0FA
:1031C00071F934214DF2031002F06CF900214DF237
:1031D000041002F067F93A214DF2051002F062F98D
:1031E00000214DF2061002F05DF94A214DF2071060
:1031F00002F058F900214DF2081002F053F95C2159
:103200004DF2091002F04EF900214DF20A1002F0C1
:1032100049F981214DF20B1002F044F900214DF2E1
:103220000C1002F03FF9A6214DF20D1002F03AF910
:1032300000214DF20E1002F035F9E5214DF20F108C
:1032400002F030F901214DF2101002F02BF9132198
:103250004DF2111002F026F901214DF2121002F088
:1032600021F954214DF2131002F01CF901214DF205
:10327000141002F017F982214DF2151002F012F924
:1032800001214DF2161002F00DF9CA214DF217106E
:1032900002F008F902214DF2181002F003F90021A2
:1032A0004DF2191002F0FEF802214DF21A1002F050
:1032B000F9F801214DF21B1002F0F4F802214DF251
:1032C0001C1002F0EFF834214DF21D1002F0EAF864
:1032D00002214DF21E1002F0E5F867214DF21F1099
:1032E00002F0E0F802214DF2201002F0DBF8842118
:1032F0004DF2211002F0D6F802214DF2221002F018
:10330000D1F8A4214DF2231002F0CCF802214DF2A5
:10331000241002F0C7F8B7214DF2251002F0C2F8D0
:1033200002214DF2261002F0BDF8CF214DF22710F8
:1033300002F0B8F802214DF2281002F0B3F8DE21B5
:103340004DF2291002F0AEF802214DF22A1002F0DF
:10335000A9F8F2214DF22B1002F0A4F802214DF24F
:103360002C1002F09FF8FE214DF22D1002F09AF879
:1033700003214DF22E1002F095F810214DF22F107E
:1033800002F090F803214DF2301002F08BF8332157
:103390004DF2311002F086F803214DF2321002F0A6
:1033A00081F86D214DF2331002F07CF800214FF4CA
:1033B000524002F077F833214DF2012002F072F80A
:1033C00000214DF2022002F06DF834214DF203206D
:1033D00002F068F800214DF2042002F063F83A216F
:1033E0004DF2052002F05EF800214DF2062002F0B9
:1033F00059F84A214DF2072002F054F800214DF20D
:10340000082002F04FF85C214DF2092002F04AF842
:1034100000214DF20A2002F045F881214DF20B20E7
:1034200002F040F800214DF20C2002F03BF8A621FA
:103430004DF20D2002F036F800214DF20E2002F080
:1034400031F8E5214DF20F2002F02CF801214DF268
:10345000102002F027F813214DF2112002F022F87B
:1034600001214DF2122002F01DF854214DF21320DB
:1034700002F018F801214DF2142002F013F8822115
:103480004DF2152002F00EF801214DF2162002F047
:1034900009F8CA214DF2172002F004F802214DF27A
:1034A000182001F0FFFF00214DF2192001F0FAFF72
:1034B00002214DF21A2001F0F5FF01214DF21B20EF
:1034C00001F0F0FF02214DF21C2001F0EBFF34214E
:1034D0004DF21D2001F0E6FF02214DF21E2001F009
:1034E000E1FF67214DF21F2001F0DCFF02214DF2C8
:1034F000202001F0D7FF84214DF2212001F0D2FFDE
:1035000002214DF2222001F0CDFFA4214DF2232013
:1035100001F0C8FF02214DF2242001F0C3FFB721C2
:103520004DF2252001F0BEFF02214DF2262001F0D0
:10353000B9FFCF214DF2272001F0B4FF02214DF257
:10354000282001F0AFFFDE214DF2292001F0AAFF73
:1035500002214DF22A2001F0A5FFF2214DF22B208D
:1035600001F0A0FF02214DF22C2001F09BFFFE2173
:103570004DF22D2001F096FF03214DF22E2001F097
:1035800091FF10214DF22F2001F08CFF03214DF20D
:10359000302001F087FF33214DF2312001F082FF0E
:1035A00003214DF2322001F07DFF6D214DF23320D9
:1035B00001F078FF00214FF4534001F073FF3321F5
:1035C0004DF2013001F06EFF00214DF2023001F0AA
:1035D00069FF34214DF2033001F064FF00214DF208
:1035E000043001F05FFF3A214DF2053001F05AFF3F
:1035F00000214DF2063001F055FF4A214DF207300F
:1036000001F050FF00214DF2083001F04BFF5C212A
:103610004DF2093001F046FF00214DF20A3001F071
:1036200041FF81214DF20B3001F03CFF00214DF2B2
:103630000C3001F037FFA6214DF20D3001F032FFC2
:1036400000214DF20E3001F02DFFE5214DF20F303B
:1036500001F028FF01214DF2103001F023FF13216A
:103660004DF2113001F01EFF01214DF2123001F038
:1036700019FF54214DF2133001F014FF01214DF2D6
:10368000143001F00FFF82214DF2153001F00AFFD6
:1036900001214DF2163001F005FFCA214DF217301D
:1036A00001F000FF02214DF2183001F0FBFE002175
:1036B0004DF2193001F0F6FE02214DF21A3001F000
:1036C000F1FE01214DF21B3001F0ECFE02214DF222
:1036D0001C3001F0E7FE34214DF21D3001F0E2FE16
:1036E00002214DF21E3001F0DDFE67214DF21F3048
:1036F00001F0D8FE02214DF2203001F0D3FE8421EA
:103700004DF2213001F0CEFE02214DF2223001F0C7
:10371000C9FEA4214DF2233001F0C4FE02214DF276
:10372000243001F0BFFEB7214DF2253001F0BAFE82
:1037300002214DF2263001F0B5FECF214DF22730A7
:1037400001F0B0FE02214DF2283001F0ABFEDE2187
:103750004DF2293001F0A6FE02214DF22A3001F08F
:10376000A1FEF2214DF22B3001F09CFE02214DF220
:103770002C3001F097FEFE214DF22D3001F092FE2B
:1037800003214DF22E3001F08DFE10214DF22F302D
:1037900001F088FE03214DF2303001F083FE332129
:1037A0004DF2313001F07EFE03214DF2323001F056
:1037B00079FE6D214DF2333001F074FE00214FF49B
:1037C000544001F06FFE332100E080E34DF20140F0
:1037D00001F068FE00214DF2024001F063FE342149
:1037E0004DF2034001F05EFE00214DF2044001F075
:1037F00059FE3A214DF2054001F054FE00214DF2F0
:10380000064001F04FFE4A214DF2074001F04AFE0A
:1038100000214DF2084001F045FE5C214DF20940C7
:1038200001F040FE00214DF20A4001F03BFE8121F3
:103830004DF20B4001F036FE00214DF20C4001F03C
:1038400031FEA6214DF20D4001F02CFE00214DF27B
:103850000E4001F027FEE5214DF20F4001F022FE5F
:1038600001214DF2104001F01DFE13214DF21140D7
:1038700001F018FE01214DF2124001F013FE542117
:103880004DF2134001F00EFE01214DF2144001F003
:1038900009FE82214DF2154001F004FE01214DF296
:1038A000164001F0FFFDCA214DF2174001F0FAFD6C
:1038B00002214DF2184001F0F5FD00214DF21940B2
:1038C00001F0F0FD02214DF21A4001F0EBFD00E0A5
:1038D000FFE201214DF21B4001F0E4FD02214DF217
:1038E0001C4001F0DFFD34214DF21D4001F0DAFDF6
:1038F00002214DF21E4001F0D5FD67214DF21F401F
:1039000001F0D0FD02214DF2204001F0CBFD8421D9
:103910004DF2214001F0C6FD02214DF2224001F09E
:10392000C1FDA4214DF2234001F0BCFD02214DF266
:10393000244001F0B7FDB7214DF2254001F0B2FD62
:1039400002214DF2264001F0ADFDCF214DF227407E
:1039500001F0A8FD02214DF2284001F0A3FDDE2177
:103960004DF2294001F09EFD02214DF22A4001F066
:1039700099FDF2214DF22B4001F094FD02214DF210
:103980002C4001F08FFDFE214DF22D4001F08AFD0B
:1039900003214DF22E4001F085FD10214DF22F4004
:1039A00001F080FD03214DF2304001F07BFD332119
:1039B0004DF2314001F076FD03214DF2324001F02D
:1039C00071FD6D214DF2334001F06CFD00214FF48B
:1039D000554001F067FD33214DF2015001F062FDC9
:1039E00000214DF2025001F05DFD34214DF20350F3
:1039F00001F058FD00214DF2045001F053FD3A2131
:103A00004DF2055001F04EFD00214DF2065001F03F
:103A100049FD4A214DF2075001F044FD00214DF2CD
:103A2000085001F03FFD5C214DF2095001F03AFDD4
:103A300000214DF20A5001F035FD81214DF20B506D
:103A400001F030FD00214DF20C5001F02BFDA621BC
:103A50004DF20D5001F026FD00214DF20E5001F007
:103A600021FDE5214DF20F5001F01CFD01214DF229
:103A7000105001F017FD13214DF2115001F012FD0D
:103A800001214DF2125001F00DFD54214DF2135061
:103A900001F008FD01214DF2145001F003FD8221D7
:103AA0004DF2155001F0FEFC01214DF2165001F0CF
:103AB000F9FCCA214DF2175001F0F4FC02214DF23D
:103AC000185001F0EFFC00214DF2195001F0EAFC12
:103AD00002214DF21A5001F0E5FC01214DF21B507C
:103AE00001F0E0FC02214DF21C5001F0DBFC34211E
:103AF0004DF21D5001F0D6FC02214DF21E5001F096
:103B0000D1FC67214DF21F5001F0CCFC02214DF297
:103B1000205001F0C7FC84214DF2215001F0C2FC7D
:103B200002214DF2225001F0BDFCA4214DF22350A0
:103B300001F0B8FC02214DF2245001F0B3FCB72192
:103B40004DF2255001F0AEFC02214DF2265001F05D
:103B5000A9FCCF214DF2275001F0A4FC02214DF227
:103B6000285001F09FFCDE214DF2295001F09AFC13
:103B700002214DF22A5001F095FCF2214DF22B501A
:103B800001F090FC02214DF22C5001F08BFCFE2143
:103B90004DF22D5001F086FC03214DF22E5001F024
:103BA00081FC10214DF22F5001F07CFC03214DF2DD
:103BB000305001F077FC33214DF2315001F072FCAE
:103BC00003214DF2325001F06DFC6D214DF2335066
:103BD00001F068FC00214FF4564001F063FC3321F2
:103BE0004DF2016001F05EFC00214DF2026001F037
:103BF00059FC34214DF2036001F054FC00214DF2D8
:103C0000046001F04FFC3A214DF2056001F04AFCDE
:103C100000214DF2066001F045FC4A214DF207609B
:103C200001F040FC00214DF2086001F03BFC5C21FA
:103C30004DF2096001F036FC00214DF20A6001F0FE
:103C400031FC81214DF20B6001F02CFC00214DF282
:103C50000C6001F027FCA6214DF20D6001F022FC62
:103C600000214DF20E6001F01DFCE5214DF20F60C8
:103C700001F018FC01214DF2106001F013FC13213A
:103C80004DF2116001F00EFC01214DF2126001F0C5
:103C900009FC54214DF2136001F004FC01214DF2A6
:103CA000146001F0FFFB82214DF2156001F0FAFB78
:103CB00001214DF2166001F0F5FBCA214DF21760AB
:103CC00001F0F0FB02214DF2186001F0EBFB002146
:103CD0004DF2196001F0E6FB02214DF21A6001F08D
:103CE000E1FB01214DF21B6001F0DCFB02214DF2F2
:103CF0001C6001F0D7FB34214DF21D6001F0D2FBB6
:103D000002214DF21E6001F0CDFB67214DF21F60D4
:103D100001F0C8FB02214DF2206001F0C3FB8421B9
:103D20004DF2216001F0BEFB02214DF2226001F054
:103D3000B9FBA4214DF2236001F0B4FB02214DF246
:103D4000246001F0AFFBB7214DF2256001F0AAFB22
:103D500002214DF2266001F0A5FBCF214DF2276034
:103D600001F0A0FB02214DF2286001F09BFBDE2157
:103D70004DF2296001F096FB02214DF22A6001F01C
:103D800091FBF2214DF22B6001F08CFB02214DF2F0
:103D90002C6001F087FBFE214DF22D6001F082FBCB
:103DA00003214DF22E6001F07DFB10214DF22F60BA
:103DB00001F078FB03214DF2306001F073FB3321F9
:103DC0004DF2316001F06EFB03214DF2326001F0E3
:103DD00069FB6D214DF2336001F064FB55211846FB
:103DE00001F060FBAA21284601F05CFB522130461D
:103DF00001F058FB0821384601F054FB00214846E9
:103E000001F050FBCC21584601F04CFB00214BF255
:103E1000011001F047FB0521504601F043FB7021E2
:103E20004FF4374001F03EFB70214BF2017001F07E
:103E300039FB01214FF4384001F034FB03214BF6EC
:103E4000010001F02FFB03214BF6020001F02AFBD9
:103E500003214BF6030001F025FB02214FF43C4007
:103E600001F020FB00214BF6014001F01BFB00217B
:103E70004BF6024001F016FBD0214FF4494001F00F
:103E800011FB02214CF6011001F00CFB50214CF605
:103E9000021001F007FB50214CF6031001F002FB69
:103EA00050214CF6041001F0FDFA00214FF454505B
:103EB00001F0F8FA55214FF4685001F0F3FA4FF48D
:103EC00088502080782002F033FC4FF4245020806A
:103ED000FEE3A0F513414FF4E06940F2022A4FF4EB
:103EE000274B253924D040F20777C91E7ED04FF4E6
:103EF000887B08317BD011397AD0A0F5A8410839E8
:103F000077D0A0F5A8514FF4407B053972D0B1F5B8
:103F1000204170D0B1F580516ED0A0F58A41313981
:103F20006BD0091F6AD0A0F5C851633967D0CFE7BD
:103F300047F6F001E52001F0B5FA3146012001F025
:103F4000B1FA4946022001F0ADFA41F230010320F6
:103F500001F0A8FA0021042001F0A4FA514608203B
:103F600001F0A0FA0021092001F09CFA00210A20AA
:103F700001F098FA00210C2001F094FA00210D20A4
:103F800001F090FA00210F2001F08CFA002110209E
:103F900001F088FA0721112001F084FA0021122093
:103FA00001F080FA0021132001F07CFA00210720A3
:103FB00001F078FA41F29061102001F073FA40F2BA
:103FC0002721112001F06EFA9D21122001F06AFADA
:103FD0004FF4C851132001F065FA2521292001F082
:103FE00061FA0D212B2001F05DFA09E077E033E161
:103FF000D8E1AEE24AE3FDE3FDE3FDE3FDE3FDE3EB
:104000000721302001F04EFA40F20331312001F057
:1040100049FA0321322001F045FA40F20621352009
:1040200001F040FA0821362001F03CFA40F2064146
:10403000372001F037FA4FF44171382001F032FA9D
:104040000721392001F02EFA40F202613C2001F0F4
:1040500029FA08213D2001F025FA0021502001F025
:1040600021FAEF21512001F01DFA0021522001F028
:1040700019FA40F23F11532001F014FA594660201A
:1040800001F010FA0121612001F00CFA00216A20F0
:1040900001F008FA0021802001F004FA00218120BB
:1040A00001F000FA0021822001F0FCF900218320B8
:1040B00001F0F8F90021842001F0F4F900218520B5
:1040C00001F0F0F91021902001F0ECF94FF4C061FB
:1040D000922001F0E7F940F233110720FDE341F2AD
:1040E0008F01EC2001F0DEF941F23421EF2001F0E4
:1040F000D9F93146012001F0D5F94946022001F0F5
:10410000D1F941F23001032001F0CCF90021042063
:1041100001F0C8F95146082001F0C4F90021092036
:1041200001F0C0F900210A2001F0BCF901210C20A6
:1041300001F0B8F900210D2001F0B4F900210F20A1
:1041400001F0B0F90021102001F0ACF90721112095
:1041500001F0A8F90021122001F0A4F90021132098
:1041600001F0A0F90121072001F09CF9322002F0B2
:10417000C5FA41F29041102001F094F940F2272154
:10418000112001F08FF9322002F0B8FA8A211220B2
:1041900001F088F9322002F0B1FA4FF4D051132027
:1041A00001F080F90621292001F07CF90D212B2056
:1041B00001F078F9322002F0A1FA0021202001F06C
:1041C00071F90021212001F06DF9322002F096FAF8
:1041D0000021302001F066F940F20461312001F045
:1041E00061F940F20531322001F05CF900213520FF
:1041F00001F058F940F60941362001F053F94FF427
:104200000171372001F04EF940F20131382001F000
:1042100049F93946392001F045F900213C2001F0E7
:1042200041F940F60A213D2001F03CF9322002F02C
:1042300065FA0021502001F035F9EF21512001F0FD
:1042400031F90021522001F02DF940F23F115320A5
:1042500001F028F9594651E10021084601F022F900
:104260003146012001F01EF94946022001F01AF9F9
:1042700041F23001032001F015F90021042001F082
:1042800011F95146082001F00DF90021092001F033
:1042900009F900210A2001F005F901210C2001F0A3
:1042A00001F900210D2001F0FDF800210F2001F09F
:1042B000F9F8322002F022FA40F20111072001F051
:1042C000F1F8322002F01AFA4FF48651102001F072
:1042D000E9F80721112001F0E5F85B465946122064
:1042E00001F0E0F84FF43061132001F0DBF8002119
:1042F000292001F0D7F844F210012B2001F0D2F868
:104300000021502001F0CEF8EF21512001F0CAF831
:104310000021522001F0C6F840F23F11532001F075
:10432000C1F84FF41C51602001F0BCF8012161205C
:1043300001F0B8F800216A2001F0B4F800218020D3
:1043400001F0B0F80021812001F0ACF800218220BA
:1043500001F0A8F80021832001F0A4F800218420B6
:1043600001F0A0F80021852001F09CF81021902098
:1043700001F098F80021922001F094F80121932097
:1043800001F090F81946952001F08CF80021972053
:1043900001F088F80021982001F084F840F27311B0
:1043A000072085E341F21401E72001F07BF8314654
:1043B000012001F077F84FF40071022001F072F84B
:1043C00041F23801032001F06DF85146082001F058
:1043D00069F80021092001F065F800210A2001F0A8
:1043E00061F800210C2001F05DF800210D2001F0A2
:1043F00059F800210F2001F055F80021102001F09C
:1044000051F80721112001F04DF80021122001F090
:1044100049F80021132001F045F8C82002F06EF998
:1044200041F29061102001F03DF840F22721112067
:1044300001F038F8322002F061F90C21122001F06D
:1044400031F8322002F05AF94FF40061132001F0E4
:1044500029F81121292001F025F80B212B2001F04A
:1044600021F8322002F04AF90021202001F01AF848
:1044700040F23F131946212001F014F800213020AA
:1044800001F010F84FF483742146312001F00AF84E
:104490000021322001F006F84FF40171352001F0BF
:1044A00001F841F20A61362000F0FCFF394637205E
:1044B00000F0F8FF2146382000F0F4FF394639209B
:1044C00000F0F0FF40F202413C2000F0EBFF40F62C
:1044D0000F413D2000F0E6FF0021502000F0E2FFF8
:1044E000EF21512000F0DEFF0021522000F0DAFF22
:1044F0001946532000F0D6FF4FF41C51602000F005
:10450000D1FF0121612000F0CDFF00216A2000F0E1
:10451000C9FF0021802000F0C5FF0021812000F0AC
:10452000C1FF0021822000F0BDFF0021832000F0A8
:10453000B9FF0021842000F0B5FF0021852000F0A4
:10454000B1FF1021902000F0ADFF4FF4C061922028
:10455000FDE33146012000F0A5FF4946022000F0AE
:10456000A1FF41F23001032000F09CFF0021042054
:1045700000F098FF40F20721082000F093FF00218F
:10458000092000F08FFF00210A2000F08BFF00219E
:104590000C2000F087FF00210D2000F083FF002198
:1045A0000F2000F07FFF142002F0A8F841F2B06164
:1045B000102000F077FF0121112000F073FF01218E
:1045C000172000F06FFF4FF49C71122000F06AFF7B
:1045D0004FF40061132000F065FF0921292000F04D
:1045E00061FF09212A2000F05DFF0021A42000F0D6
:1045F00059FF0021502000F055FFEF21512000F01D
:1046000051FF0021522000F04DFF40F23F11532096
:1046100000F048FF4FF41C51602000F043FF0121DF
:10462000612000F03FFF00216A2000F03BFF0021E5
:10463000802000F037FF0021812000F033FF0021AF
:10464000822000F02FFF0021832000F02BFF0021AB
:10465000842000F027FF0021852000F023FF132194
:10466000902000F01FFF0021922000F01BFF03218B
:10467000932000F017FF5946952000F013FF40F2F9
:104680007311072000F00EFF322010E100210720F7
:1046900000F008FF322002F031F84FF48E71122042
:1046A00000F000FF0121A42000F0FCFE0F210820F3
:1046B00000F0F8FE08210A2000F0F4FE08210D2089
:1046C00000F0F0FE3946302000F0ECFE072100E05B
:1046D0006FE3312000F0E6FE40F20361322000F08B
:1046E000E1FE4C464946332000F0DCFE51463420C2
:1046F00000F0D8FE0221352000F0D4FE41F60F7103
:10470000362000F0CFFE3946372000F0CBFE0021E6
:10471000382000F0C7FE0021392000F0C3FE3946E2
:104720003A2000F0BFFE00213B2000F0BBFE072135
:104730003C2000F0B7FE00213D2000F0B3FE322007
:1047400001F0DCFF0121072000F0ACFE0121172061
:1047500000F0A8FE322001F0D1FF4FF4BD5110202F
:1047600000F0A0FE40F21721112000F09BFE4FF454
:104770008F71122000F096FE4FF47061132000F04C
:1047800091FE00212A2000F08DFE0A21292000F050
:1047900089FE4FF49F71122000F084FE002150200A
:1047A00000F080FEEF21512000F07CFE002152201D
:1047B00000F078FE40F23F11532000F073FE4FF4FA
:1047C0001C51602000F06EFE0121612000F06AFEA5
:1047D00000216A2000F066FE0021802000F062FEC9
:1047E0000021812000F05EFE0021822000F05AFEB0
:1047F000002104E05EE05CE125E2DBE282E383206D
:1048000000F050FE0021842000F04CFE00218520A5
:1048100000F048FE1321902000F044FE59469220FB
:1048200000F040FE0521932000F03CFE0021952081
:1048300000F038FE0021972000F034FE002198207F
:1048400000F030FE3146012000F02CFE214602200F
:1048500000F028FE41F23801032000F023FE002181
:10486000042000F01FFE00210C2000F01BFE0021A0
:104870000F2000F017FE0021202000F013FE002181
:10488000212000F00FFE2121072000F00BFE142054
:1048900001F034FF6121072000F004FE142001F034
:1048A0002DFF40F27311072000F0FCFD142001F0F1
:1048B00025FFA1E30021084600F0F4FD0021084691
:1048C00000F0F0FD0021084600F0ECFD0021084654
:1048D00000F0E8FD0121A42000E0E5E000F0E2FDA9
:1048E000142001F00BFF4FF41C542146602000F00F
:1048F000D9FD55465146082000F0D4FD4FF405710E
:10490000302000F0CFFD43F21571312000F0CAFDD8
:1049100040F20461322000F0C5FD40F616613320FC
:1049200000F0C0FD42F21121342000F0BBFD4FF435
:10493000A851352000F0B6FD48F20751362000F0AE
:10494000B1FD41F20741372000F0ACFD41F20341D7
:10495000382000F0A7FD2021392000F0A3FD1A2106
:10496000902000F09FFD0021102000F09BFD07210A
:10497000112000F097FD0021122000F093FD00218E
:10498000132000F08FFD142001F0B8FE4FF4E66113
:10499000102000F087FD40F23711112000F082FD59
:1049A000142001F0ABFE4FF4DC71122000F07AFD10
:1049B000142001F0A3FE4FF47061132000F072FD8B
:1049C00080212A2000F06EFD4821292000F06AFD98
:1049D000142001F093FE3146012000F063FD4946AA
:1049E000022000F05FFD41F23801032000F05AFD83
:1049F0002946082000F056FD00210A2000F052FD53
:104A000000210C2000F04EFD00210D2000F04AFD99
:104A100030210E2000F046FD0021502000F042FD24
:104A2000EF21512000F03EFD0021522000F03AFD20
:104A300040F23F11532000F035FD2146602000F088
:104A400031FD0121612000F02DFD00216A2000F0E0
:104A500029FD1121902000F025FD4FF4C061922026
:104A600000F020FD40F20241932000F01BFD0221E6
:104A7000942000F017FD142001F040FE01210720D2
:104A800000F010FD142001F039FE6121072000F034
:104A900009FD40F27311072000F004FD00212020E1
:104AA00000F000FD0021212000F0FCFC222100206C
:104AB0007DE10021084600F0F5FC0021084600F0E9
:104AC000F1FC142001F01AFE0021084600F0EAFC77
:104AD0000021084600F0E6FC0021084600F0E2FC58
:104AE0000021084600F0DEFC0121A42000F0DAFCE1
:104AF000142001F003FE4FF41C51602000F0D2FCA2
:104B000040F60601082000F0CDFC40F20373194680
:104B1000302000F0C7FC0121312000F0C3FC04214B
:104B2000322000F0BFFC4FF48171332000F0BAFC5A
:104B30005C465946342000F0B5FC40F203113520A4
:104B400000F0B0FC1F21362000F0ACFC19463720E5
:104B500000F0A8FC0121382000F0A4FC0421392039
:104B600000F0A0FC1521902000F09CFC4FF4826125
:104B7000102000F097FC40F24721112000F092FC39
:104B80004FF4DE71122000F08DFC4FF460611320B1
:104B900000F088FC782001F0B1FD3146012000F0E2
:104BA00081FC4FF40071022000F07CFC41F23001E6
:104BB000032000F077FC08210A2000F073FC00219C
:104BC0000C2000F06FFC20210E2000F06BFC002177
:104BD0000F2000F067FC0021202000F063FC002182
:104BE000212000F05FFC3D212A2000F05BFC142016
:104BF00001F084FD2D21292000F054FC00215020DB
:104C000000F050FC4DF2EF01512000F04BFC002170
:104C1000522000F047FC40F23F11532000F042FCCC
:104C20000021612000F03EFC00216A2000F03AFCE7
:104C30002146922000F036FC0521932000F032FC42
:104C40003146FFF7ADBB0121002000F02BFC0A200C
:104C500001F054FD41F22861102000F023FC0E21E8
:104C6000122000F01FFC40F63921132000F01AFC3E
:104C70000A2001F043FD4021112000F013FC5021D7
:104C8000152000F00FFC0A2001F038FD1E21122033
:104C900000F008FC0A2001F031FD4FF4B151102062
:104CA00000F000FC42F63921132000F0FBFB0A2043
:104CB00001F024FD3146012000F0F4FB59460220AA
:104CC00000F0F0FB41F23801032000F0EBFB51460D
:104CD000082000F0E7FB08210A2000F0E3FB002198
:104CE000302000F0DFFB40F20241312000F0DAFB1F
:104CF0004FF48371322000F0D5FB40F20351332092
:104D000000F0D0FB4FF48271342000F0CBFB40F276
:104D10000131352000F0C6FB3946362000F0C2FBD9
:104D200040F20531372000F0BDFB4FF4027138200E
:104D300000F0B8FB40F60B71392000F0B3FB022104
:104D4000412000F0AFFB4FF41C51602000E0D4E0A4
:104D500000F0A8FB0121612000F0A4FB4FF40471D6
:104D6000902000F09FFB4FF48571922000F09AFB99
:104D70000421932000F096FB3146A02000F092FB26
:104D80000121072000F08EFB2121072000F08AFB83
:104D90002321072000F086FB3321072000F082FB4F
:104DA00040F23311072000F07DFB0021A02000F02D
:104DB00079FB21E13021152000F074FB10219A20AD
:104DC00000F070FB2021112000F06CFB43F2284121
:104DD000102000F067FB0221122000F063FB41F27B
:104DE0003801132000F05EFB282001F087FC12211F
:104DF000084600F057FB282001F080FC43F22041D8
:104E0000102000F04FFB43F23801132000F04AFB62
:104E1000462001F073FC0021302000F043FB40F2FB
:104E20000241312000F03EFB40F20731322000F019
:104E300039FB4FF44171332000F034FB042134205E
:104E400000F030FB40F20141352000F02BFB3946E9
:104E5000362000F027FB40F20531372000F022FB1E
:104E60004FF4C2631946382000F01CFB1946392064
:104E700000F018FB3146012000F014FB59460220D7
:104E800000F010FB41F23001032000F00BFB40F674
:104E90000801082000F006FB08210A2000F002FBB0
:104EA0004FF41C51602000F0FDFA0121612000F058
:104EB000F9FA4FF49F71902000F0F4FA31469220F5
:104EC00000F0F0FA3146932000F0ECFA4FF4405134
:104ED000A02000F0E7FA1021A32000F0E3FA01215E
:104EE000072000F0DFFA2121072000F0DBFA232160
:104EF000072000F0D7FA3321072000F0D3FA40F260
:104F000033119EE6E22020801D2028800220288088
:104F100004202880642001F00BFCE0202080012088
:104F200028800A2001F0EAFBE0202080032028806E
:104F30000C2001F0E3FB012020800A2001F0DEFBC1
:104F4000E62020802F202880FF2028802880B02085
:104F5000208020202880002028800320288040F204
:104F60001F3028800120288040F2DF102880002098
:104F70002880B42020800420288040F21F40288010
:104F8000002028802E20288000202880288028804B
:104F90002880B6202080022028804FF403702880CB
:104FA00000202880172028801520288000202880B5
:104FB0002880F02020800320288029202080D020F5
:104FC000208000202880BE20208005202880FE2010
:104FD0002880012028800020288028802880B82070
:104FE00020800320288001202880BA2020800120F2
:104FF0002880642000F026F80020FCF793FF054984
:105000000120C1F880014046FCF756FF1FB0BDE803
:10501000F08F000000802142034808B50088ADF8F9
:105020000000BDF8000008BD0008006C044910B580
:105030000880052001F07CFBBDE81040FFF7ECBFC5
:10504000FE07006C0C4A10B5BE211180941C05218E
:10505000218002F0B8FE4FF06632084B02F0C6FE27
:1050600002F084FE208001202080FF20208000208C
:105070002080208010BD0000FE07006C66660440A2
:10508000F0B5674E00233146B279898846F60407A9
:1050900041F66314012A01D02AB11DE0B9421BD0A8
:1050A000A14202D118E0A14216D1082814D2DFE8AB
:1050B00000F00406080A0C0E101206200CE007206F
:1050C0000AE0042008E0052006E0012004E00020BA
:1050D00002E0032000E00220A1F5134C45F210325B
:1050E00045F21055BCF1410C07D0B94205D09142B0
:1050F00003D0A94201D0A14275D1082812D2DFE81D
:1051000000F0110406080A0C0E1080230AE0402368
:1051100008E0C02306E0202304E0602302E0A0238F
:1051200000E0E023A94202D14FF4585000E03620BD
:10513000914205D0A94203D0A14201D043F0080317
:10514000B94201D143F00203194600F0ABF9B2882D
:10515000A2420AD098063088718802D5884202D3CC
:1051600003E0884201D9318070802E48811CAA4218
:105170007289028021D100230B80531C03800023FD
:105180000B80931C038033885B1E1C0A0C80D21C8E
:105190000280DAB20A80B289028000230B80531C9D
:1051A000038000230B80931C038073885B1E1C0A02
:1051B0000C80D21C0280D8B212E000220A800A8041
:1051C0003288521E130A0B80D2B20A80B289028042
:1051D0000020088008807088401E020A0A80C0B241
:1051E0000880F0BDFFE7082812D2DFE800F00406CF
:1051F00008110A0C0E1030230AE0102308E02023C7
:1052000006E0382304E0282302E0182300E0082306
:10521000BDE8F040032043F4805100F043B90000A2
:10522000BA040020FE07006C2DE9F04F4E4F0B46EC
:105230003A46BD880C0ADFF834B191895289A5F548
:1052400013464FEA102C0BF1020A413E1DD0A5F582
:10525000A646103E19D03E46BE4696F806903688C1
:10526000A5F5D047A6EB0008A8F10108043F17D028
:10527000A5F5C857633F28D0A5F5AA477646103F45
:1052800051D0B9F1010F63D064E0ABF80020524671
:10529000AAF800C0C0B2AAF80000ABF800100FE0F6
:1052A000B9F1010F01D11FFA88F0ABF80020050A0F
:1052B0005246AAF80050C0B2AAF80000ABF800109D
:1052C0001480D8B21080BDE8F08FB9F1000F1BD068
:1052D000ABF800205246AAF800C0C0B2AAF80000FD
:1052E000761E300AAAF80000F0B21080ABF8001069
:1052F00011461480D8B21080BEF80200401E020A87
:105300000A80C0B20880DEE71FFA88F0ABF8002000
:1053100000265246AAF80060AAF80060060AAAF819
:105320000060C0B2E1E7ABF80020AAF800C0521C50
:10533000ABF80020C0B2AAF80000ABF80010AAF841
:105340000040491CABF80010D8B2AAF80000BAE738
:105350001FFA88F00146104600F0A4F8B089BDE8B5
:10536000F04F194600F09EB8BA040020FE07006C0A
:105370002DE9F84F82461F460C468B46580700D051
:10538000012000EBD70079084843203AC0B202F070
:10539000FF090026009041E00C2F10D0102F12D0F2
:1053A000182F3ED1204909EBC90001EB80004FF0D6
:1053B0000008855D28060AD51C4802880BE009EB29
:1053C00049001B49F1E71B4901EB0910EFE70A9877
:1053D00028B91648428821465046FCF73DFE68062B
:1053E000050E1548641CA4B24088A04219D9A4EB4C
:1053F0000B00B84209D10AF101001FFA80FA0E48E9
:105400005C46018851450CD906E008F1010000F026
:10541000FF08B8F1080FCDD3761CF6B2009886428B
:10542000BAD3BDE8F88F00003090000826000020B5
:10543000CC850008408A0008BA0400202DE9F84F06
:10544000044600F0FF0810190D46DDE90A761FFA40
:1054500080FA58191FFA80F94FF0000B11E05445FB
:1054600002D3E819444685B24D450FD23B46294642
:105470002046CDF800B0FFF77BFF04EB570084B265
:10548000761C3278A2F120005E28E8D9BDE8F88FBA
:10549000024803490089088070470000BA040020D0
:1054A000FE07006C024A1080901C018070470000CB
:1054B000FE07006C38B50121482000F08FFB202446
:1054C000ADF8004010208DF8030003200B4D8DF83F
:1054D000020069462846FCF797FA20212846FCF787
:1054E000E8FAADF80040064C69462046FCF78CFA15
:1054F00020212046FCF7DDFA38BD0000000C0140F9
:1055000000180140FEE700002DE9F84F0D468146E6
:10551000002737A12846FBF7BFF80446C0790321CE
:10552000303800F0FF0B204600F066F8FF2805D069
:105530002044694600F08EFA89F801004FF0000817
:1055400051E02BA12846FBF7A7F8054600244FF0B1
:10555000040A0AEB8400C1B2284600F04DF8FF2887
:105560003CD02844694600F075FA07EB870202EB4D
:10557000090686F83E00052000EB8400C1B22846EB
:1055800000F03AF8FF2829D02844694600F062FA72
:1055900086F83F00062000EB8400C1B2284600F0E8
:1055A0002BF8FF281AD02844694600F053FAA6F8D1
:1055B0004000072000EB8400C1B2284600F01CF830
:1055C000FF280BD02844694600F044FA7F1C641C75
:1055D000E4B286F84200FFB2042CBAD308F101020B
:1055E00002F0FF086D1CD845ABD3BDE8F88F000072
:1055F000244244475356000003460DE002782A2A0D
:1056000003D0202A01D37A2A01D9FF2070472C2AFF
:1056100001D1491EC9B2401C0029EFD1C01AC0B245
:105620007047000038B50A46054614A11046FBF73E
:1056300033F804460621FFF7DFFFFF2805D020449A
:10564000694600F007FA85F88B0007212046FFF72E
:10565000D3FFFF2805D02044694600F0FBF985F808
:105660008C0009212046FFF7C7FFFF2805D0204402
:10567000694600F0EFF9C5F8A00038BD24474E4751
:1056800047410000F8B50A46064624A11046FBF73C
:1056900003F805460221FFF7AFFFFF2805D0284495
:1056A000694600F0D7F986F899000024E01CC1B2E1
:1056B0002846FFF7A1FFFF280AD02844694600F0DA
:1056C000C9F93119641CE4B281F88D000C2CEDD3BA
:1056D0000F212846FFF790FFFF2805D02844694690
:1056E00000F0B8F9A6F89A0010212846FFF784FFC9
:1056F000FF2805D02844694600F0ACF9A6F89C00C4
:1057000011212846FFF778FFFF2805D02844694675
:1057100000F0A0F9A6F89E00F8BD000024474E470F
:10572000534100002DE9F8430A46044675A110468E
:10573000FAF7B2FF05460121FFF75EFF42F210764D
:105740004FF06408FF281ED02844694600F082F913
:1057500007469DF800100A2000F074F9B7FBF0F03E
:10576000B0FBF6F184F87E104146B0FBF1F2B2FBDB
:10577000F1F308FB132284F87F20B0FBF8F208FB5A
:10578000120084F8800003212846FFF735FFDFF878
:105790007C91FF283ED02844694600F05BF907461B
:1057A0009DF80000801CC1B20A2000F04BF9B7FB45
:1057B000F0F044F8810F9DF80000801CC1B20A206F
:1057C00000F040F90146B7FBF1F200FB127002F065
:1057D00093FD07469DF80000C0F10500C1B20A2004
:1057E00000F030F902F088FD394602F099FD494693
:1057F00002F088FC074605210A2000F023F9216801
:10580000484302F079FD394602F01AFC02F03CFDF3
:1058100044F8810904212846FFF7EEFEFF2802D054
:10582000285C84F8850005212846FFF7E5FEFF285F
:105830003ED02844694600F00DF907469DF8000067
:10584000801CC1B20A2000F0FDF8B7FBF0F044F86C
:10585000860F9DF80000801CC1B20A2000F0F2F80B
:105860000146B7FBF1F200FB127002F045FD07465E
:105870009DF80000C0F10500C1B20A2000F0E2F876
:1058800002F03AFD394602F04BFD494602F03AFC7F
:10589000074605210A2000F0D5F82168484302F0A8
:1058A0002BFD394602F0CCFB02F0EEFC44F88609F1
:1058B00006212846FFF7A0FEFF2802D0285C84F8C6
:1058C0008A0009212846FFF797FEFF2818D02844B0
:1058D000694600F0BFF8B0FBF6F184F87D10414650
:1058E000B0FBF1F2B2FBF1F308FB132284F87C2049
:1058F000B0FBF8F208FB120000F5FA60A4F87A0099
:10590000BDE8F88324474E524D430000000070422A
:1059100038B50A4604460FA11046FAF7BDFE054603
:105920000721FFF769FEFF2813D02844694600F0DD
:1059300091F8A4F8A4009DF80000032809D2C0F152
:105940000300C1B20A2000F07DF834F8A41F4843D8
:10595000208038BD24474E56544700002DE9F84FAB
:105960000D468146002735A12846FAF795FE0446E4
:10597000C0790321303800F0FF0B2046FFF73CFED2
:10598000FF2805D02044694600F064F889F800003B
:105990004FF000084DE029A12846FAF77DFE0546A4
:1059A00000244FF0040A0AEB8400C1B22846FFF736
:1059B00023FEFF2838D02844694600F04BF807EB57
:1059C000870202EB0906B070052000EB8400C1B22B
:1059D0002846FFF711FEFF2826D02844694600F02C
:1059E00039F8F070062000EB8400C1B22846FFF7BA
:1059F00003FEFF2818D02844694600F02BF8B08039
:105A0000072000EB8400C1B22846FFF7F5FDFF2810
:105A10000AD02844694600F01DF87F1C641CE4B2DB
:105A2000B071FFB2042CBED308F1010202F0FF08EE
:105A30006D1CD845AFD3BDE8F88F00002447504710
:105A4000535600000346012000E05843491EC9B2E6
:105A5000FBD270472DE9F04F4FF0000A8B4680468D
:105A6000D14656465446554601782D2902D145F077
:105A70000205401C01782C2908D02A2906D02E299D
:105A80000AD030390A290AD300263446A80701D59E
:105A900008F10108002718E045F00105401CE9075E
:105AA00002D0641CE4B201E0761CF6B2401CDBE7D5
:105AB000F01B401EC1B20A20FFF7C4FF18F8071000
:105AC000303900FB01AA7F1CFFB2B742F0D3052C8E
:105AD00000D905248BF8004000270EE0E01B401E93
